{
  "_format": "hh-sol-artifact-1",
  "contractName": "RealEstateDapp",
  "sourceName": "contracts/RealEstateDapp.sol",
  "abi": [
    {
      "inputs": [
        {
          "internalType": "uint256",
          "name": "_tax",
          "type": "uint256"
        },
        {
          "internalType": "uint256",
          "name": "_securityFee",
          "type": "uint256"
        }
      ],
      "stateMutability": "nonpayable",
      "type": "constructor"
    },
    {
      "anonymous": false,
      "inputs": [
        {
          "indexed": true,
          "internalType": "address",
          "name": "previousOwner",
          "type": "address"
        },
        {
          "indexed": true,
          "internalType": "address",
          "name": "newOwner",
          "type": "address"
        }
      ],
      "name": "OwnershipTransferred",
      "type": "event"
    },
    {
      "inputs": [
        {
          "internalType": "uint256",
          "name": "aptid",
          "type": "uint256"
        },
        {
          "internalType": "uint256[]",
          "name": "dates",
          "type": "uint256[]"
        }
      ],
      "name": "bookApt",
      "outputs": [],
      "stateMutability": "payable",
      "type": "function"
    },
    {
      "inputs": [
        {
          "internalType": "uint256",
          "name": "aptid",
          "type": "uint256"
        },
        {
          "internalType": "uint256",
          "name": "bookingid",
          "type": "uint256"
        }
      ],
      "name": "checkInApt",
      "outputs": [],
      "stateMutability": "nonpayable",
      "type": "function"
    },
    {
      "inputs": [
        {
          "internalType": "uint256",
          "name": "aptid",
          "type": "uint256"
        },
        {
          "internalType": "uint256",
          "name": "bookingid",
          "type": "uint256"
        }
      ],
      "name": "claimFunds",
      "outputs": [],
      "stateMutability": "nonpayable",
      "type": "function"
    },
    {
      "inputs": [
        {
          "internalType": "string",
          "name": "name",
          "type": "string"
        },
        {
          "internalType": "string",
          "name": "desc",
          "type": "string"
        },
        {
          "internalType": "string",
          "name": "loc",
          "type": "string"
        },
        {
          "internalType": "string",
          "name": "images",
          "type": "string"
        },
        {
          "internalType": "uint256",
          "name": "rooms",
          "type": "uint256"
        },
        {
          "internalType": "uint256",
          "name": "price",
          "type": "uint256"
        }
      ],
      "name": "createApt",
      "outputs": [],
      "stateMutability": "nonpayable",
      "type": "function"
    },
    {
      "inputs": [
        {
          "internalType": "uint256",
          "name": "id",
          "type": "uint256"
        }
      ],
      "name": "deleteApt",
      "outputs": [],
      "stateMutability": "nonpayable",
      "type": "function"
    },
    {
      "inputs": [
        {
          "internalType": "uint256",
          "name": "id",
          "type": "uint256"
        }
      ],
      "name": "getApt",
      "outputs": [
        {
          "components": [
            {
              "internalType": "uint256",
              "name": "id",
              "type": "uint256"
            },
            {
              "internalType": "string",
              "name": "name",
              "type": "string"
            },
            {
              "internalType": "string",
              "name": "desc",
              "type": "string"
            },
            {
              "internalType": "string",
              "name": "loc",
              "type": "string"
            },
            {
              "internalType": "string",
              "name": "images",
              "type": "string"
            },
            {
              "internalType": "uint256",
              "name": "rooms",
              "type": "uint256"
            },
            {
              "internalType": "uint256",
              "name": "price",
              "type": "uint256"
            },
            {
              "internalType": "address",
              "name": "owner",
              "type": "address"
            },
            {
              "internalType": "bool",
              "name": "booked",
              "type": "bool"
            },
            {
              "internalType": "bool",
              "name": "deleted",
              "type": "bool"
            },
            {
              "internalType": "uint256",
              "name": "timestamp",
              "type": "uint256"
            }
          ],
          "internalType": "struct RealEstateDapp.AptStruct",
          "name": "",
          "type": "tuple"
        }
      ],
      "stateMutability": "view",
      "type": "function"
    },
    {
      "inputs": [],
      "name": "getApts",
      "outputs": [
        {
          "components": [
            {
              "internalType": "uint256",
              "name": "id",
              "type": "uint256"
            },
            {
              "internalType": "string",
              "name": "name",
              "type": "string"
            },
            {
              "internalType": "string",
              "name": "desc",
              "type": "string"
            },
            {
              "internalType": "string",
              "name": "loc",
              "type": "string"
            },
            {
              "internalType": "string",
              "name": "images",
              "type": "string"
            },
            {
              "internalType": "uint256",
              "name": "rooms",
              "type": "uint256"
            },
            {
              "internalType": "uint256",
              "name": "price",
              "type": "uint256"
            },
            {
              "internalType": "address",
              "name": "owner",
              "type": "address"
            },
            {
              "internalType": "bool",
              "name": "booked",
              "type": "bool"
            },
            {
              "internalType": "bool",
              "name": "deleted",
              "type": "bool"
            },
            {
              "internalType": "uint256",
              "name": "timestamp",
              "type": "uint256"
            }
          ],
          "internalType": "struct RealEstateDapp.AptStruct[]",
          "name": "Apts",
          "type": "tuple[]"
        }
      ],
      "stateMutability": "view",
      "type": "function"
    },
    {
      "inputs": [
        {
          "internalType": "uint256",
          "name": "aptid",
          "type": "uint256"
        },
        {
          "internalType": "uint256",
          "name": "bookingid",
          "type": "uint256"
        }
      ],
      "name": "getBookings",
      "outputs": [
        {
          "components": [
            {
              "internalType": "uint256",
              "name": "id",
              "type": "uint256"
            },
            {
              "internalType": "uint256",
              "name": "aptid",
              "type": "uint256"
            },
            {
              "internalType": "address",
              "name": "tenant",
              "type": "address"
            },
            {
              "internalType": "uint256",
              "name": "date",
              "type": "uint256"
            },
            {
              "internalType": "uint256",
              "name": "price",
              "type": "uint256"
            },
            {
              "internalType": "bool",
              "name": "checked",
              "type": "bool"
            },
            {
              "internalType": "bool",
              "name": "cancelled",
              "type": "bool"
            }
          ],
          "internalType": "struct RealEstateDapp.BookingStruct",
          "name": "",
          "type": "tuple"
        }
      ],
      "stateMutability": "view",
      "type": "function"
    },
    {
      "inputs": [
        {
          "internalType": "uint256",
          "name": "aptid",
          "type": "uint256"
        }
      ],
      "name": "getBookings",
      "outputs": [
        {
          "components": [
            {
              "internalType": "uint256",
              "name": "id",
              "type": "uint256"
            },
            {
              "internalType": "uint256",
              "name": "aptid",
              "type": "uint256"
            },
            {
              "internalType": "address",
              "name": "tenant",
              "type": "address"
            },
            {
              "internalType": "uint256",
              "name": "date",
              "type": "uint256"
            },
            {
              "internalType": "uint256",
              "name": "price",
              "type": "uint256"
            },
            {
              "internalType": "bool",
              "name": "checked",
              "type": "bool"
            },
            {
              "internalType": "bool",
              "name": "cancelled",
              "type": "bool"
            }
          ],
          "internalType": "struct RealEstateDapp.BookingStruct[]",
          "name": "",
          "type": "tuple[]"
        }
      ],
      "stateMutability": "view",
      "type": "function"
    },
    {
      "inputs": [
        {
          "internalType": "uint256",
          "name": "aptid",
          "type": "uint256"
        }
      ],
      "name": "getQualifiedReviwers",
      "outputs": [
        {
          "internalType": "address[]",
          "name": "Tenants",
          "type": "address[]"
        }
      ],
      "stateMutability": "view",
      "type": "function"
    },
    {
      "inputs": [
        {
          "internalType": "uint256",
          "name": "aptid",
          "type": "uint256"
        }
      ],
      "name": "getReviews",
      "outputs": [
        {
          "components": [
            {
              "internalType": "uint256",
              "name": "id",
              "type": "uint256"
            },
            {
              "internalType": "uint256",
              "name": "aptid",
              "type": "uint256"
            },
            {
              "internalType": "string",
              "name": "text",
              "type": "string"
            },
            {
              "internalType": "uint256",
              "name": "timestamp",
              "type": "uint256"
            },
            {
              "internalType": "address",
              "name": "owner",
              "type": "address"
            }
          ],
          "internalType": "struct RealEstateDapp.ReviewStruct[]",
          "name": "",
          "type": "tuple[]"
        }
      ],
      "stateMutability": "view",
      "type": "function"
    },
    {
      "inputs": [
        {
          "internalType": "uint256",
          "name": "aptid",
          "type": "uint256"
        }
      ],
      "name": "getUnavailableDates",
      "outputs": [
        {
          "internalType": "uint256[]",
          "name": "",
          "type": "uint256[]"
        }
      ],
      "stateMutability": "view",
      "type": "function"
    },
    {
      "inputs": [],
      "name": "owner",
      "outputs": [
        {
          "internalType": "address",
          "name": "",
          "type": "address"
        }
      ],
      "stateMutability": "view",
      "type": "function"
    },
    {
      "inputs": [
        {
          "internalType": "uint256",
          "name": "aptid",
          "type": "uint256"
        },
        {
          "internalType": "uint256",
          "name": "bookingid",
          "type": "uint256"
        }
      ],
      "name": "refundBooking",
      "outputs": [],
      "stateMutability": "nonpayable",
      "type": "function"
    },
    {
      "inputs": [],
      "name": "renounceOwnership",
      "outputs": [],
      "stateMutability": "nonpayable",
      "type": "function"
    },
    {
      "inputs": [],
      "name": "securityFee",
      "outputs": [
        {
          "internalType": "uint256",
          "name": "",
          "type": "uint256"
        }
      ],
      "stateMutability": "view",
      "type": "function"
    },
    {
      "inputs": [],
      "name": "tax",
      "outputs": [
        {
          "internalType": "uint256",
          "name": "",
          "type": "uint256"
        }
      ],
      "stateMutability": "view",
      "type": "function"
    },
    {
      "inputs": [
        {
          "internalType": "uint256",
          "name": "aptid",
          "type": "uint256"
        }
      ],
      "name": "tenantBooked",
      "outputs": [
        {
          "internalType": "bool",
          "name": "",
          "type": "bool"
        }
      ],
      "stateMutability": "view",
      "type": "function"
    },
    {
      "inputs": [
        {
          "internalType": "address",
          "name": "newOwner",
          "type": "address"
        }
      ],
      "name": "transferOwnership",
      "outputs": [],
      "stateMutability": "nonpayable",
      "type": "function"
    },
    {
      "inputs": [
        {
          "internalType": "uint256",
          "name": "id",
          "type": "uint256"
        },
        {
          "internalType": "string",
          "name": "name",
          "type": "string"
        },
        {
          "internalType": "string",
          "name": "desc",
          "type": "string"
        },
        {
          "internalType": "string",
          "name": "loc",
          "type": "string"
        },
        {
          "internalType": "string",
          "name": "images",
          "type": "string"
        },
        {
          "internalType": "uint256",
          "name": "rooms",
          "type": "uint256"
        },
        {
          "internalType": "uint256",
          "name": "price",
          "type": "uint256"
        }
      ],
      "name": "updateApt",
      "outputs": [],
      "stateMutability": "nonpayable",
      "type": "function"
    }
  ],
  "bytecode": "0x60806040523480156200001157600080fd5b5060405162003129380380620031298339810160408190526200003491620000a2565b6200003f3362000052565b60018055600491909155600355620000c7565b600080546001600160a01b038381166001600160a01b0319831681178455604051919092169283917f8be0079c531659141344cd1fd0a4f28419497f9722a3daafe3b4186f6b6457e09190a35050565b60008060408385031215620000b657600080fd5b505080516020909101519092909150565b61305280620000d76000396000f3fe60806040526004361061011f5760003560e01c806399c8d556116100a0578063d68e130211610064578063d68e130214610364578063d97d17af1461037a578063db2f80b71461039a578063f2fde38b146103c7578063f4010995146103e757600080fd5b806399c8d556146102935780639d18bf02146102b75780639d4a2255146102ca5780639f31a2be146102f7578063d51dd1431461034257600080fd5b806367626e5d116100e757806367626e5d146101f6578063715018a6146102165780637237d5791461022b57806386c4e99f1461024b5780638da5cb5b1461026b57600080fd5b8063010b58ee1461012457806345993a381461014657806348335ded1461017c578063594956fa1461019c5780635cda44a6146101c9575b600080fd5b34801561013057600080fd5b5061014461013f36600461273d565b610414565b005b34801561015257600080fd5b5061016661016136600461273d565b6105ba565b60405161017391906127ad565b60405180910390f35b34801561018857600080fd5b50610144610197366004612872565b61065e565b3480156101a857600080fd5b506101bc6101b736600461293c565b610c95565b6040516101739190612a68565b3480156101d557600080fd5b506101e96101e436600461293c565b610f69565b6040516101739190612a82565b34801561020257600080fd5b5061014461021136600461273d565b611112565b34801561022257600080fd5b506101446114e4565b34801561023757600080fd5b5061014461024636600461293c565b6114f8565b34801561025757600080fd5b50610144610266366004612acf565b6115be565b34801561027757600080fd5b506000546040516001600160a01b039091168152602001610173565b34801561029f57600080fd5b506102a960045481565b604051908152602001610173565b6101446102c5366004612b8e565b6118d9565b3480156102d657600080fd5b506102ea6102e536600461293c565b611b8a565b6040516101739190612c40565b34801561030357600080fd5b5061033261031236600461293c565b336000908152600b60209081526040808320938352929052205460ff1690565b6040519015158152602001610173565b34801561034e57600080fd5b50610357611cc5565b6040516101739190612cde565b34801561037057600080fd5b506102a960035481565b34801561038657600080fd5b5061014461039536600461273d565b6120a2565b3480156103a657600080fd5b506103ba6103b536600461293c565b6122f8565b6040516101739190612d40565b3480156103d357600080fd5b506101446103e2366004612d78565b61235a565b3480156103f357600080fd5b5061040761040236600461293c565b6123d3565b6040516101739190612da1565b6000828152600560205260409020600701546001600160a01b031633146104785760405162461bcd60e51b8152602060048201526013602482015272556e617574686f72697a656420656e7469747960681b60448201526064015b60405180910390fd5b600082815260066020526040902080548290811061049857610498612de3565b600091825260209091206005600690920201015460ff161561050c5760405162461bcd60e51b815260206004820152602760248201527f41706172746d656e7420616c726561647920636865636b6564206f6e207468696044820152667320646174652160c81b606482015260840161046f565b600082815260066020526040812080548390811061052c5761052c612de3565b906000526020600020906006020160040154905060006064600454836105529190612e0f565b61055c9190612e26565b60008581526005602052604090206007015490915061058d906001600160a01b03166105888385612e48565b61248e565b6105a86105a26000546001600160a01b031690565b8261248e565b6105b43360035461248e565b50505050565b6105c261268c565b60008381526006602052604090208054839081106105e2576105e2612de3565b60009182526020918290206040805160e08101825260069093029091018054835260018101549383019390935260028301546001600160a01b031690820152600382015460608201526004820154608082015260059091015460ff808216151560a084015261010090910416151560c082015290505b92915050565b60008781526008602052604090205460ff1661068c5760405162461bcd60e51b815260040161046f90612e5b565b6000878152600560205260409020600701546001600160a01b031633146106ee5760405162461bcd60e51b815260206004820152601660248201527527b7363c9037bbb732b91031b0b7103ab83230ba329760511b604482015260640161046f565b60008651116107375760405162461bcd60e51b81526020600482015260156024820152742730b6b29031b0b73737ba1031329032b6b83a3c9760591b604482015260640161046f565b60008551116107885760405162461bcd60e51b815260206004820152601c60248201527f4465736372697074696f6e2063616e6e6f7420626520656d7074792e00000000604482015260640161046f565b60008451116107d55760405162461bcd60e51b81526020600482015260196024820152782637b1b0ba34b7b71031b0b73737ba1031329032b6b83a3c9760391b604482015260640161046f565b60008351116108205760405162461bcd60e51b815260206004820152601760248201527624b6b0b3b2b99031b0b73737ba1031329032b6b83a3c9760491b604482015260640161046f565b600082116108685760405162461bcd60e51b81526020600482015260156024820152742937b7b6b99031b0b73737ba103132903d32b9379760591b604482015260640161046f565b600081116108b05760405162461bcd60e51b8152602060048201526015602482015274283934b1b29031b0b73737ba103132903d32b9379760591b604482015260640161046f565b60006005600089815260200190815260200160002060405180610160016040529081600082015481526020016001820180546108eb90612e92565b80601f016020809104026020016040519081016040528092919081815260200182805461091790612e92565b80156109645780601f1061093957610100808354040283529160200191610964565b820191906000526020600020905b81548152906001019060200180831161094757829003601f168201915b5050505050815260200160028201805461097d90612e92565b80601f01602080910402602001604051908101604052809291908181526020018280546109a990612e92565b80156109f65780601f106109cb576101008083540402835291602001916109f6565b820191906000526020600020905b8154815290600101906020018083116109d957829003601f168201915b50505050508152602001600382018054610a0f90612e92565b80601f0160208091040260200160405190810160405280929190818152602001828054610a3b90612e92565b8015610a885780601f10610a5d57610100808354040283529160200191610a88565b820191906000526020600020905b815481529060010190602001808311610a6b57829003601f168201915b50505050508152602001600482018054610aa190612e92565b80601f0160208091040260200160405190810160405280929190818152602001828054610acd90612e92565b8015610b1a5780601f10610aef57610100808354040283529160200191610b1a565b820191906000526020600020905b815481529060010190602001808311610afd57829003601f168201915b5050509183525050600582810154602080840191909152600684015460408085019190915260078501546001600160a01b03811660608087019190915260ff600160a01b830481161515608080890191909152600160a81b90930416151560a08088019190915260089097015460c0968701528784018f81528884018f90529088018d90529087018b9052948601899052928501879052845160009081529190522082518155905191925082916001820190610bd69082612f1a565b5060408201516002820190610beb9082612f1a565b5060608201516003820190610c009082612f1a565b5060808201516004820190610c159082612f1a565b5060a0820151600582015560c0820151600682015560e08201516007820180546101008501516101208601511515600160a81b0260ff60a81b19911515600160a01b026001600160a81b03199093166001600160a01b03909516949094179190911716919091179055610140909101516008909101555050505050505050565b610c9d6126d6565b600560008381526020019081526020016000206040518061016001604052908160008201548152602001600182018054610cd690612e92565b80601f0160208091040260200160405190810160405280929190818152602001828054610d0290612e92565b8015610d4f5780601f10610d2457610100808354040283529160200191610d4f565b820191906000526020600020905b815481529060010190602001808311610d3257829003601f168201915b50505050508152602001600282018054610d6890612e92565b80601f0160208091040260200160405190810160405280929190818152602001828054610d9490612e92565b8015610de15780601f10610db657610100808354040283529160200191610de1565b820191906000526020600020905b815481529060010190602001808311610dc457829003601f168201915b50505050508152602001600382018054610dfa90612e92565b80601f0160208091040260200160405190810160405280929190818152602001828054610e2690612e92565b8015610e735780601f10610e4857610100808354040283529160200191610e73565b820191906000526020600020905b815481529060010190602001808311610e5657829003601f168201915b50505050508152602001600482018054610e8c90612e92565b80601f0160208091040260200160405190810160405280929190818152602001828054610eb890612e92565b8015610f055780601f10610eda57610100808354040283529160200191610f05565b820191906000526020600020905b815481529060010190602001808311610ee857829003601f168201915b5050509183525050600582015460208201526006820154604082015260078201546001600160a01b038116606083015260ff600160a01b8204811615156080840152600160a81b90910416151560a082015260089091015460c09091015292915050565b60606000805b600084815260066020526040902054811015610fe1576000848152600660205260409020805482908110610fa557610fa5612de3565b600091825260209091206005600690920201015460ff1615610fcf5781610fcb81612fda565b9250505b80610fd981612fda565b915050610f6f565b508067ffffffffffffffff811115610ffb57610ffb6127bb565b604051908082528060200260200182016040528015611024578160200160208202803683370190505b5091506000805b60008581526006602052604090205481101561110a57600085815260066020526040902080548290811061106157611061612de3565b600091825260209091206005600690920201015460ff16156110f857600085815260066020526040902080548290811061109d5761109d612de3565b60009182526020909120600260069092020101546001600160a01b031684836110c581612fda565b9450815181106110d7576110d7612de3565b60200260200101906001600160a01b031690816001600160a01b0316815250505b8061110281612fda565b91505061102b565b505050919050565b61111a6124ee565b600082815260066020526040812080548390811061113a5761113a612de3565b60009182526020918290206040805160e08101825260069093029091018054835260018101549383019390935260028301546001600160a01b031690820152600382015460608201526004820154608082015260059091015460ff80821615801560a085015261010090920416151560c08301529091506111fd5760405162461bcd60e51b815260206004820152601f60248201527f41706172746d656e7420616c726561647920636865636b656420696e746f2e00604482015260640161046f565b6000838152600a602090815260408083206060850151845290915290205460ff1661125d5760405162461bcd60e51b815260206004820152601060248201526f2230ba32903737ba103137b7b5b2b21760811b604482015260640161046f565b6000546001600160a01b0316331461132e5780604001516001600160a01b0316336001600160a01b0316146112d45760405162461bcd60e51b815260206004820152601b60248201527f4f6e6c792074656e616e742063616e2067657420726566756e642e0000000000604482015260640161046f565b6112dc612547565b81606001511161132e5760405162461bcd60e51b815260206004820152601d60248201527f45786365656465642063616e63656c6c6174696f6e20706572696f642e000000604482015260640161046f565b60008381526006602052604090208054600191908490811061135257611352612de3565b6000918252602080832060056006909302019190910180549315156101000261ff001990941693909317909255848152600a82526040808220606085015183528352808220805460ff191690558582526009909252908120546113b790600190612e48565b600085815260096020526040812080549293509091839081106113dc576113dc612de3565b906000526020600020015490508060096000878152602001908152602001600020858154811061140e5761140e612de3565b90600052602060002001819055506009600086815260200190815260200160002080548061143e5761143e612ff3565b6001900381819060005260206000200160009055905560006064600354856080015161146a9190612e0f565b6114749190612e26565b90506000611483600283612e26565b6000888152600560205260409020600701549091506114ab906001600160a01b03168261248e565b6114c06105a26000546001600160a01b031690565b6114d28560400151866080015161248e565b50505050506114e060018055565b5050565b6114ec612566565b6114f660006125c0565b565b60008181526008602052604090205460ff166115265760405162461bcd60e51b815260040161046f90612e5b565b6000818152600560205260409020600701546001600160a01b031633146115885760405162461bcd60e51b815260206004820152601660248201527527b7363c9037bbb732b91031b0b7103232b632ba329760511b604482015260640161046f565b6000908152600860209081526040808320805460ff1916905560059091529020600701805460ff60a81b1916600160a81b179055565b60008651116116075760405162461bcd60e51b81526020600482015260156024820152742730b6b29031b0b73737ba1031329032b6b83a3c9760591b604482015260640161046f565b60008551116116585760405162461bcd60e51b815260206004820152601c60248201527f4465736372697074696f6e2063616e6e6f7420626520656d7074792e00000000604482015260640161046f565b60008451116116a55760405162461bcd60e51b81526020600482015260196024820152782637b1b0ba34b7b71031b0b73737ba1031329032b6b83a3c9760391b604482015260640161046f565b60008351116116f05760405162461bcd60e51b815260206004820152601760248201527624b6b0b3b2b99031b0b73737ba1031329032b6b83a3c9760491b604482015260640161046f565b600082116117385760405162461bcd60e51b81526020600482015260156024820152742937b7b6b99031b0b73737ba103132903d32b9379760591b604482015260640161046f565b600081116117805760405162461bcd60e51b8152602060048201526015602482015274283934b1b29031b0b73737ba103132903d32b9379760591b604482015260640161046f565b61178e600280546001019055565b6117966126d6565b60025481526020810187905260408101869052606081018590526080810184905260a0810183905260c081018290523360e08201526117d3612547565b61014082015280516000908152600860209081526040808320805460ff19166001908117909155845184526005835292208351815590830151839282019061181b9082612f1a565b50604082015160028201906118309082612f1a565b50606082015160038201906118459082612f1a565b506080820151600482019061185a9082612f1a565b5060a0820151600582015560c0820151600682015560e08201516007820180546101008501516101208601511515600160a81b0260ff60a81b19911515600160a01b026001600160a81b03199093166001600160a01b039095169490941791909117169190911790556101409091015160089091015550505050505050565b60008281526008602052604090205460ff166119075760405162461bcd60e51b815260040161046f90612e5b565b60646003546119169190612e26565b611921906001613009565b815160008481526005602052604090206006015461193f9190612e0f565b6119499190612e0f565b34101561198e5760405162461bcd60e51b815260206004820152601360248201527224b739bab33334b1b4b2b73a10333ab732399760691b604482015260640161046f565b6119988282612610565b6119da5760405162461bcd60e51b81526020600482015260136024820152722230ba32b9903737ba1030bb30b4b0b136329760691b604482015260640161046f565b60005b8151811015611b85576119ee61268c565b600084815260066020908152604091829020548352820185905233908201528251839083908110611a2157611a21612de3565b60209081029190910181015160608301908152600086815260058084526040808320600690810154608088019081528a85528187528285208054600181810183559187528887208a51919094029093019283558888015183820155838901516002840180546001600160a01b039092166001600160a01b03199092169190911790559551600383015551600482015560a08701519201805460c088015115156101000261ff00199415159490941661ffff199091161792909217909155878252600a909352918220855191929091869086908110611b0157611b01612de3565b6020026020010151815260200190815260200160002060006101000a81548160ff02191690831515021790555060096000858152602001908152602001600020838381518110611b5357611b53612de3565b602090810291909101810151825460018101845560009384529190922001555080611b7d81612fda565b9150506119dd565b505050565b606060076000838152602001908152602001600020805480602002602001604051908101604052809291908181526020016000905b82821015611cba57838290600052602060002090600502016040518060a00160405290816000820154815260200160018201548152602001600282018054611c0690612e92565b80601f0160208091040260200160405190810160405280929190818152602001828054611c3290612e92565b8015611c7f5780601f10611c5457610100808354040283529160200191611c7f565b820191906000526020600020905b815481529060010190602001808311611c6257829003601f168201915b505050918352505060038201546020808301919091526004909201546001600160a01b03166040909101529082526001929092019101611bbf565b505050509050919050565b6060600060015b600254811015611d1657600081815260056020526040902060070154600160a81b900460ff16611d045781611d0081612fda565b9250505b80611d0e81612fda565b915050611ccc565b508067ffffffffffffffff811115611d3057611d306127bb565b604051908082528060200260200182016040528015611d6957816020015b611d566126d6565b815260200190600190039081611d4e5790505b509150600060015b60025481101561209c57600081815260056020526040902060070154600160a81b900460ff1661208a57600560008281526020019081526020016000206040518061016001604052908160008201548152602001600182018054611dd490612e92565b80601f0160208091040260200160405190810160405280929190818152602001828054611e0090612e92565b8015611e4d5780601f10611e2257610100808354040283529160200191611e4d565b820191906000526020600020905b815481529060010190602001808311611e3057829003601f168201915b50505050508152602001600282018054611e6690612e92565b80601f0160208091040260200160405190810160405280929190818152602001828054611e9290612e92565b8015611edf5780601f10611eb457610100808354040283529160200191611edf565b820191906000526020600020905b815481529060010190602001808311611ec257829003601f168201915b50505050508152602001600382018054611ef890612e92565b80601f0160208091040260200160405190810160405280929190818152602001828054611f2490612e92565b8015611f715780601f10611f4657610100808354040283529160200191611f71565b820191906000526020600020905b815481529060010190602001808311611f5457829003601f168201915b50505050508152602001600482018054611f8a90612e92565b80601f0160208091040260200160405190810160405280929190818152602001828054611fb690612e92565b80156120035780601f10611fd857610100808354040283529160200191612003565b820191906000526020600020905b815481529060010190602001808311611fe657829003601f168201915b5050509183525050600582015460208201526006820154604082015260078201546001600160a01b038116606083015260ff600160a01b8204811615156080840152600160a81b90910416151560a082015260089091015460c090910152848361206c81612fda565b94508151811061207e5761207e612de3565b60200260200101819052505b8061209481612fda565b915050611d71565b50505090565b6120aa6124ee565b60008281526006602052604081208054839081106120ca576120ca612de3565b60009182526020918290206040805160e08101825260069093029091018054835260018101549383019390935260028301546001600160a01b0316908201819052600383015460608301526004830154608083015260059092015460ff808216151560a084015261010090910416151560c08201529150331461218f5760405162461bcd60e51b815260206004820181905260248201527f4f6e6c7920626f6f6b696e672074656e616e742063616e20636865636b20696e604482015260640161046f565b8060a00151156121e15760405162461bcd60e51b815260206004820152601f60248201527f41706172746d656e7420616c726561647920636865636b656420696e746f2e00604482015260640161046f565b60008381526006602052604090208054600191908490811061220557612205612de3565b60009182526020808320600560069093020191909101805493151560ff19948516179055338252600b815260408083206060860151845290915281208054909216600117909155600454608083015160649161226091612e0f565b61226a9190612e26565b90506000606460035484608001516122829190612e0f565b61228c9190612e26565b60008681526005602052604090206007015460808501519192506122c1916001600160a01b0390911690610588908590612e48565b6122de6122d66000546001600160a01b031690565b60045461248e565b6122ec83604001518261248e565b5050506114e060018055565b60008181526009602090815260409182902080548351818402810184019094528084526060939283018282801561234e57602002820191906000526020600020905b81548152602001906001019080831161233a575b50505050509050919050565b612362612566565b6001600160a01b0381166123c75760405162461bcd60e51b815260206004820152602660248201527f4f776e61626c653a206e6577206f776e657220697320746865207a65726f206160448201526564647265737360d01b606482015260840161046f565b6123d0816125c0565b50565b606060066000838152602001908152602001600020805480602002602001604051908101604052809291908181526020016000905b82821015611cba5760008481526020908190206040805160e08101825260068602909201805483526001808201548486015260028201546001600160a01b03169284019290925260038101546060840152600481015460808401526005015460ff808216151560a085015261010090910416151560c08301529083529092019101612408565b6000826001600160a01b03168260405160006040518083038185875af1925050503d80600081146124db576040519150601f19603f3d011682016040523d82523d6000602084013e6124e0565b606091505b5050905080611b8557600080fd5b6002600154036125405760405162461bcd60e51b815260206004820152601f60248201527f5265656e7472616e637947756172643a207265656e7472616e742063616c6c00604482015260640161046f565b6002600155565b6000612555426103e8612e0f565b612561906103e8613009565b905090565b6000546001600160a01b031633146114f65760405162461bcd60e51b815260206004820181905260248201527f4f776e61626c653a2063616c6c6572206973206e6f7420746865206f776e6572604482015260640161046f565b600080546001600160a01b038381166001600160a01b0319831681178455604051919092169283917f8be0079c531659141344cd1fd0a4f28419497f9722a3daafe3b4186f6b6457e09190a35050565b60006001815b835181101561268457600a6000868152602001908152602001600020600085838151811061264657612646612de3565b60209081029190910181015182528101919091526040016000205460ff16156126725760009150612684565b8061267c81612fda565b915050612616565b509392505050565b6040518060e00160405280600081526020016000815260200160006001600160a01b0316815260200160008152602001600081526020016000151581526020016000151581525090565b6040518061016001604052806000815260200160608152602001606081526020016060815260200160608152602001600081526020016000815260200160006001600160a01b03168152602001600015158152602001600015158152602001600081525090565b6000806040838503121561275057600080fd5b50508035926020909101359150565b80518252602080820151908301526040808201516001600160a01b031690830152606080820151908301526080808201519083015260a08082015115159083015260c0908101511515910152565b60e08101610658828461275f565b634e487b7160e01b600052604160045260246000fd5b604051601f8201601f1916810167ffffffffffffffff811182821017156127fa576127fa6127bb565b604052919050565b600082601f83011261281357600080fd5b813567ffffffffffffffff81111561282d5761282d6127bb565b612840601f8201601f19166020016127d1565b81815284602083860101111561285557600080fd5b816020850160208301376000918101602001919091529392505050565b600080600080600080600060e0888a03121561288d57600080fd5b87359650602088013567ffffffffffffffff808211156128ac57600080fd5b6128b88b838c01612802565b975060408a01359150808211156128ce57600080fd5b6128da8b838c01612802565b965060608a01359150808211156128f057600080fd5b6128fc8b838c01612802565b955060808a013591508082111561291257600080fd5b5061291f8a828b01612802565b93505060a0880135915060c0880135905092959891949750929550565b60006020828403121561294e57600080fd5b5035919050565b6000815180845260005b8181101561297b5760208185018101518683018201520161295f565b506000602082860101526020601f19601f83011685010191505092915050565b60006101608251845260208301518160208601526129bb82860182612955565b915050604083015184820360408601526129d58282612955565b915050606083015184820360608601526129ef8282612955565b91505060808301518482036080860152612a098282612955565b91505060a083015160a085015260c083015160c085015260e0830151612a3a60e08601826001600160a01b03169052565b5061010083810151151590850152610120808401511515908501526101409283015192909301919091525090565b602081526000612a7b602083018461299b565b9392505050565b6020808252825182820181905260009190848201906040850190845b81811015612ac35783516001600160a01b031683529284019291840191600101612a9e565b50909695505050505050565b60008060008060008060c08789031215612ae857600080fd5b863567ffffffffffffffff80821115612b0057600080fd5b612b0c8a838b01612802565b97506020890135915080821115612b2257600080fd5b612b2e8a838b01612802565b96506040890135915080821115612b4457600080fd5b612b508a838b01612802565b95506060890135915080821115612b6657600080fd5b50612b7389828a01612802565b9350506080870135915060a087013590509295509295509295565b60008060408385031215612ba157600080fd5b8235915060208084013567ffffffffffffffff80821115612bc157600080fd5b818601915086601f830112612bd557600080fd5b813581811115612be757612be76127bb565b8060051b9150612bf88483016127d1565b8181529183018401918481019089841115612c1257600080fd5b938501935b83851015612c3057843582529385019390850190612c17565b8096505050505050509250929050565b60006020808301818452808551808352604092508286019150828160051b87010184880160005b83811015612cd057603f19898403018552815160a0815185528882015189860152878201518189870152612c9d82870182612955565b606084810151908801526080938401516001600160a01b0316939096019290925250509386019390860190600101612c67565b509098975050505050505050565b6000602080830181845280855180835260408601915060408160051b870101925083870160005b82811015612d3357603f19888603018452612d2185835161299b565b94509285019290850190600101612d05565b5092979650505050505050565b6020808252825182820181905260009190848201906040850190845b81811015612ac357835183529284019291840191600101612d5c565b600060208284031215612d8a57600080fd5b81356001600160a01b0381168114612a7b57600080fd5b6020808252825182820181905260009190848201906040850190845b81811015612ac357612dd083855161275f565b9284019260e09290920191600101612dbd565b634e487b7160e01b600052603260045260246000fd5b634e487b7160e01b600052601160045260246000fd5b808202811582820484141761065857610658612df9565b600082612e4357634e487b7160e01b600052601260045260246000fd5b500490565b8181038181111561065857610658612df9565b60208082526019908201527f41706172746d656e7420646f6573206e6f742065786973742e00000000000000604082015260600190565b600181811c90821680612ea657607f821691505b602082108103612ec657634e487b7160e01b600052602260045260246000fd5b50919050565b601f821115611b8557600081815260208120601f850160051c81016020861015612ef35750805b601f850160051c820191505b81811015612f1257828155600101612eff565b505050505050565b815167ffffffffffffffff811115612f3457612f346127bb565b612f4881612f428454612e92565b84612ecc565b602080601f831160018114612f7d5760008415612f655750858301515b600019600386901b1c1916600185901b178555612f12565b600085815260208120601f198616915b82811015612fac57888601518255948401946001909101908401612f8d565b5085821015612fca5787850151600019600388901b60f8161c191681555b5050505050600190811b01905550565b600060018201612fec57612fec612df9565b5060010190565b634e487b7160e01b600052603160045260246000fd5b8082018082111561065857610658612df956fea2646970667358221220bd2530caf67d114bcae33d2e18c32613cf1b88a86bc441dd2e7ca71db5c5d4d964736f6c63430008130033",
  "linkReferences": {},
  "deployedLinkReferences": {}
}