{
  "_format": "hh-sol-artifact-1",
  "contractName": "RealEstateDapp",
  "sourceName": "contracts/RealEstateDapp.sol",
  "abi": [
    {
      "inputs": [
        {
          "internalType": "uint256",
          "name": "_tax",
          "type": "uint256"
        },
        {
          "internalType": "uint256",
          "name": "_securityFee",
          "type": "uint256"
        }
      ],
      "stateMutability": "nonpayable",
      "type": "constructor"
    },
    {
      "anonymous": false,
      "inputs": [
        {
          "indexed": true,
          "internalType": "address",
          "name": "previousOwner",
          "type": "address"
        },
        {
          "indexed": true,
          "internalType": "address",
          "name": "newOwner",
          "type": "address"
        }
      ],
      "name": "OwnershipTransferred",
      "type": "event"
    },
    {
      "inputs": [
        {
          "internalType": "uint256",
          "name": "aptid",
          "type": "uint256"
        },
        {
          "internalType": "uint256[]",
          "name": "dates",
          "type": "uint256[]"
        }
      ],
      "name": "bookApt",
      "outputs": [],
      "stateMutability": "payable",
      "type": "function"
    },
    {
      "inputs": [
        {
          "internalType": "uint256",
          "name": "aptid",
          "type": "uint256"
        },
        {
          "internalType": "uint256",
          "name": "bookingid",
          "type": "uint256"
        }
      ],
      "name": "checkInApt",
      "outputs": [],
      "stateMutability": "nonpayable",
      "type": "function"
    },
    {
      "inputs": [
        {
          "internalType": "uint256",
          "name": "aptid",
          "type": "uint256"
        },
        {
          "internalType": "uint256",
          "name": "bookingid",
          "type": "uint256"
        }
      ],
      "name": "claimFunds",
      "outputs": [],
      "stateMutability": "nonpayable",
      "type": "function"
    },
    {
      "inputs": [
        {
          "internalType": "string",
          "name": "name",
          "type": "string"
        },
        {
          "internalType": "string",
          "name": "desc",
          "type": "string"
        },
        {
          "internalType": "string",
          "name": "loc",
          "type": "string"
        },
        {
          "internalType": "string",
          "name": "images",
          "type": "string"
        },
        {
          "internalType": "uint256",
          "name": "rooms",
          "type": "uint256"
        },
        {
          "internalType": "uint256",
          "name": "price",
          "type": "uint256"
        }
      ],
      "name": "createApt",
      "outputs": [],
      "stateMutability": "nonpayable",
      "type": "function"
    },
    {
      "inputs": [
        {
          "internalType": "uint256",
          "name": "id",
          "type": "uint256"
        }
      ],
      "name": "deleteApt",
      "outputs": [],
      "stateMutability": "nonpayable",
      "type": "function"
    },
    {
      "inputs": [
        {
          "internalType": "uint256",
          "name": "id",
          "type": "uint256"
        }
      ],
      "name": "getApt",
      "outputs": [
        {
          "components": [
            {
              "internalType": "uint256",
              "name": "id",
              "type": "uint256"
            },
            {
              "internalType": "string",
              "name": "name",
              "type": "string"
            },
            {
              "internalType": "string",
              "name": "desc",
              "type": "string"
            },
            {
              "internalType": "string",
              "name": "loc",
              "type": "string"
            },
            {
              "internalType": "string",
              "name": "images",
              "type": "string"
            },
            {
              "internalType": "uint256",
              "name": "rooms",
              "type": "uint256"
            },
            {
              "internalType": "uint256",
              "name": "price",
              "type": "uint256"
            },
            {
              "internalType": "address",
              "name": "owner",
              "type": "address"
            },
            {
              "internalType": "bool",
              "name": "booked",
              "type": "bool"
            },
            {
              "internalType": "bool",
              "name": "deleted",
              "type": "bool"
            },
            {
              "internalType": "uint256",
              "name": "timestamp",
              "type": "uint256"
            }
          ],
          "internalType": "struct RealEstateDapp.AptStruct",
          "name": "",
          "type": "tuple"
        }
      ],
      "stateMutability": "view",
      "type": "function"
    },
    {
      "inputs": [],
      "name": "getApts",
      "outputs": [
        {
          "components": [
            {
              "internalType": "uint256",
              "name": "id",
              "type": "uint256"
            },
            {
              "internalType": "string",
              "name": "name",
              "type": "string"
            },
            {
              "internalType": "string",
              "name": "desc",
              "type": "string"
            },
            {
              "internalType": "string",
              "name": "loc",
              "type": "string"
            },
            {
              "internalType": "string",
              "name": "images",
              "type": "string"
            },
            {
              "internalType": "uint256",
              "name": "rooms",
              "type": "uint256"
            },
            {
              "internalType": "uint256",
              "name": "price",
              "type": "uint256"
            },
            {
              "internalType": "address",
              "name": "owner",
              "type": "address"
            },
            {
              "internalType": "bool",
              "name": "booked",
              "type": "bool"
            },
            {
              "internalType": "bool",
              "name": "deleted",
              "type": "bool"
            },
            {
              "internalType": "uint256",
              "name": "timestamp",
              "type": "uint256"
            }
          ],
          "internalType": "struct RealEstateDapp.AptStruct[]",
          "name": "Apts",
          "type": "tuple[]"
        }
      ],
      "stateMutability": "view",
      "type": "function"
    },
    {
      "inputs": [
        {
          "internalType": "uint256",
          "name": "aptid",
          "type": "uint256"
        },
        {
          "internalType": "uint256",
          "name": "bookingid",
          "type": "uint256"
        }
      ],
      "name": "getBookings",
      "outputs": [
        {
          "components": [
            {
              "internalType": "uint256",
              "name": "id",
              "type": "uint256"
            },
            {
              "internalType": "uint256",
              "name": "aptid",
              "type": "uint256"
            },
            {
              "internalType": "address",
              "name": "tenant",
              "type": "address"
            },
            {
              "internalType": "uint256",
              "name": "date",
              "type": "uint256"
            },
            {
              "internalType": "uint256",
              "name": "price",
              "type": "uint256"
            },
            {
              "internalType": "bool",
              "name": "checked",
              "type": "bool"
            },
            {
              "internalType": "bool",
              "name": "cancelled",
              "type": "bool"
            }
          ],
          "internalType": "struct RealEstateDapp.BookingStruct",
          "name": "",
          "type": "tuple"
        }
      ],
      "stateMutability": "view",
      "type": "function"
    },
    {
      "inputs": [
        {
          "internalType": "uint256",
          "name": "aptid",
          "type": "uint256"
        }
      ],
      "name": "getBookings",
      "outputs": [
        {
          "components": [
            {
              "internalType": "uint256",
              "name": "id",
              "type": "uint256"
            },
            {
              "internalType": "uint256",
              "name": "aptid",
              "type": "uint256"
            },
            {
              "internalType": "address",
              "name": "tenant",
              "type": "address"
            },
            {
              "internalType": "uint256",
              "name": "date",
              "type": "uint256"
            },
            {
              "internalType": "uint256",
              "name": "price",
              "type": "uint256"
            },
            {
              "internalType": "bool",
              "name": "checked",
              "type": "bool"
            },
            {
              "internalType": "bool",
              "name": "cancelled",
              "type": "bool"
            }
          ],
          "internalType": "struct RealEstateDapp.BookingStruct[]",
          "name": "",
          "type": "tuple[]"
        }
      ],
      "stateMutability": "view",
      "type": "function"
    },
    {
      "inputs": [
        {
          "internalType": "uint256",
          "name": "aptid",
          "type": "uint256"
        }
      ],
      "name": "getQualifiedReviwers",
      "outputs": [
        {
          "internalType": "address[]",
          "name": "Tenants",
          "type": "address[]"
        }
      ],
      "stateMutability": "view",
      "type": "function"
    },
    {
      "inputs": [
        {
          "internalType": "uint256",
          "name": "aptid",
          "type": "uint256"
        }
      ],
      "name": "getReviews",
      "outputs": [
        {
          "components": [
            {
              "internalType": "uint256",
              "name": "id",
              "type": "uint256"
            },
            {
              "internalType": "uint256",
              "name": "aptid",
              "type": "uint256"
            },
            {
              "internalType": "string",
              "name": "text",
              "type": "string"
            },
            {
              "internalType": "uint256",
              "name": "timestamp",
              "type": "uint256"
            },
            {
              "internalType": "address",
              "name": "owner",
              "type": "address"
            }
          ],
          "internalType": "struct RealEstateDapp.ReviewStruct[]",
          "name": "",
          "type": "tuple[]"
        }
      ],
      "stateMutability": "view",
      "type": "function"
    },
    {
      "inputs": [
        {
          "internalType": "uint256",
          "name": "aptid",
          "type": "uint256"
        }
      ],
      "name": "getUnavailableDates",
      "outputs": [
        {
          "internalType": "uint256[]",
          "name": "",
          "type": "uint256[]"
        }
      ],
      "stateMutability": "view",
      "type": "function"
    },
    {
      "inputs": [],
      "name": "owner",
      "outputs": [
        {
          "internalType": "address",
          "name": "",
          "type": "address"
        }
      ],
      "stateMutability": "view",
      "type": "function"
    },
    {
      "inputs": [
        {
          "internalType": "uint256",
          "name": "aptid",
          "type": "uint256"
        },
        {
          "internalType": "uint256",
          "name": "bookingid",
          "type": "uint256"
        }
      ],
      "name": "refundBooking",
      "outputs": [],
      "stateMutability": "nonpayable",
      "type": "function"
    },
    {
      "inputs": [],
      "name": "renounceOwnership",
      "outputs": [],
      "stateMutability": "nonpayable",
      "type": "function"
    },
    {
      "inputs": [],
      "name": "securityFee",
      "outputs": [
        {
          "internalType": "uint256",
          "name": "",
          "type": "uint256"
        }
      ],
      "stateMutability": "view",
      "type": "function"
    },
    {
      "inputs": [],
      "name": "tax",
      "outputs": [
        {
          "internalType": "uint256",
          "name": "",
          "type": "uint256"
        }
      ],
      "stateMutability": "view",
      "type": "function"
    },
    {
      "inputs": [
        {
          "internalType": "uint256",
          "name": "aptid",
          "type": "uint256"
        }
      ],
      "name": "tenantBooked",
      "outputs": [
        {
          "internalType": "bool",
          "name": "",
          "type": "bool"
        }
      ],
      "stateMutability": "view",
      "type": "function"
    },
    {
      "inputs": [
        {
          "internalType": "address",
          "name": "newOwner",
          "type": "address"
        }
      ],
      "name": "transferOwnership",
      "outputs": [],
      "stateMutability": "nonpayable",
      "type": "function"
    },
    {
      "inputs": [
        {
          "internalType": "uint256",
          "name": "id",
          "type": "uint256"
        },
        {
          "internalType": "string",
          "name": "name",
          "type": "string"
        },
        {
          "internalType": "string",
          "name": "desc",
          "type": "string"
        },
        {
          "internalType": "string",
          "name": "loc",
          "type": "string"
        },
        {
          "internalType": "string",
          "name": "images",
          "type": "string"
        },
        {
          "internalType": "uint256",
          "name": "rooms",
          "type": "uint256"
        },
        {
          "internalType": "uint256",
          "name": "price",
          "type": "uint256"
        }
      ],
      "name": "updateApt",
      "outputs": [],
      "stateMutability": "nonpayable",
      "type": "function"
    }
  ],
  "bytecode": "0x60806040523480156200001157600080fd5b5060405162003136380380620031368339810160408190526200003491620000a2565b6200003f3362000052565b60018055600491909155600355620000c7565b600080546001600160a01b038381166001600160a01b0319831681178455604051919092169283917f8be0079c531659141344cd1fd0a4f28419497f9722a3daafe3b4186f6b6457e09190a35050565b60008060408385031215620000b657600080fd5b505080516020909101519092909150565b61305f80620000d76000396000f3fe60806040526004361061011f5760003560e01c806399c8d556116100a0578063d68e130211610064578063d68e130214610364578063d97d17af1461037a578063db2f80b71461039a578063f2fde38b146103c7578063f4010995146103e757600080fd5b806399c8d556146102935780639d18bf02146102b75780639d4a2255146102ca5780639f31a2be146102f7578063d51dd1431461034257600080fd5b806367626e5d116100e757806367626e5d146101f6578063715018a6146102165780637237d5791461022b57806386c4e99f1461024b5780638da5cb5b1461026b57600080fd5b8063010b58ee1461012457806345993a381461014657806348335ded1461017c578063594956fa1461019c5780635cda44a6146101c9575b600080fd5b34801561013057600080fd5b5061014461013f36600461274a565b610414565b005b34801561015257600080fd5b5061016661016136600461274a565b6105cb565b60405161017391906127ba565b60405180910390f35b34801561018857600080fd5b5061014461019736600461287f565b61066f565b3480156101a857600080fd5b506101bc6101b7366004612949565b610ca6565b6040516101739190612a75565b3480156101d557600080fd5b506101e96101e4366004612949565b610f7a565b6040516101739190612a8f565b34801561020257600080fd5b5061014461021136600461274a565b611123565b34801561022257600080fd5b506101446114f1565b34801561023757600080fd5b50610144610246366004612949565b611505565b34801561025757600080fd5b50610144610266366004612adc565b6115cb565b34801561027757600080fd5b506000546040516001600160a01b039091168152602001610173565b34801561029f57600080fd5b506102a960045481565b604051908152602001610173565b6101446102c5366004612b9b565b6118e6565b3480156102d657600080fd5b506102ea6102e5366004612949565b611b97565b6040516101739190612c4d565b34801561030357600080fd5b50610332610312366004612949565b336000908152600b60209081526040808320938352929052205460ff1690565b6040519015158152602001610173565b34801561034e57600080fd5b50610357611cd2565b6040516101739190612ceb565b34801561037057600080fd5b506102a960035481565b34801561038657600080fd5b5061014461039536600461274a565b6120af565b3480156103a657600080fd5b506103ba6103b5366004612949565b612305565b6040516101739190612d4d565b3480156103d357600080fd5b506101446103e2366004612d85565b612367565b3480156103f357600080fd5b50610407610402366004612949565b6123e0565b6040516101739190612dae565b61041c61249b565b6000828152600560205260409020600701546001600160a01b031633146104805760405162461bcd60e51b8152602060048201526013602482015272556e617574686f72697a656420656e7469747960681b60448201526064015b60405180910390fd5b60008281526006602052604090208054829081106104a0576104a0612df0565b600091825260209091206005600690920201015460ff16156105145760405162461bcd60e51b815260206004820152602760248201527f41706172746d656e7420616c726561647920636865636b6564206f6e207468696044820152667320646174652160c81b6064820152608401610477565b600082815260066020526040812080548390811061053457610534612df0565b9060005260206000209060060201600401549050600060646004548361055a9190612e1c565b6105649190612e33565b600085815260056020526040902060070154909150610595906001600160a01b03166105908385612e55565b6124f4565b6105b06105aa6000546001600160a01b031690565b826124f4565b6105bc336003546124f4565b50506105c760018055565b5050565b6105d3612699565b60008381526006602052604090208054839081106105f3576105f3612df0565b60009182526020918290206040805160e08101825260069093029091018054835260018101549383019390935260028301546001600160a01b031690820152600382015460608201526004820154608082015260059091015460ff808216151560a084015261010090910416151560c082015290505b92915050565b60008781526008602052604090205460ff1661069d5760405162461bcd60e51b815260040161047790612e68565b6000878152600560205260409020600701546001600160a01b031633146106ff5760405162461bcd60e51b815260206004820152601660248201527527b7363c9037bbb732b91031b0b7103ab83230ba329760511b6044820152606401610477565b60008651116107485760405162461bcd60e51b81526020600482015260156024820152742730b6b29031b0b73737ba1031329032b6b83a3c9760591b6044820152606401610477565b60008551116107995760405162461bcd60e51b815260206004820152601c60248201527f4465736372697074696f6e2063616e6e6f7420626520656d7074792e000000006044820152606401610477565b60008451116107e65760405162461bcd60e51b81526020600482015260196024820152782637b1b0ba34b7b71031b0b73737ba1031329032b6b83a3c9760391b6044820152606401610477565b60008351116108315760405162461bcd60e51b815260206004820152601760248201527624b6b0b3b2b99031b0b73737ba1031329032b6b83a3c9760491b6044820152606401610477565b600082116108795760405162461bcd60e51b81526020600482015260156024820152742937b7b6b99031b0b73737ba103132903d32b9379760591b6044820152606401610477565b600081116108c15760405162461bcd60e51b8152602060048201526015602482015274283934b1b29031b0b73737ba103132903d32b9379760591b6044820152606401610477565b60006005600089815260200190815260200160002060405180610160016040529081600082015481526020016001820180546108fc90612e9f565b80601f016020809104026020016040519081016040528092919081815260200182805461092890612e9f565b80156109755780601f1061094a57610100808354040283529160200191610975565b820191906000526020600020905b81548152906001019060200180831161095857829003601f168201915b5050505050815260200160028201805461098e90612e9f565b80601f01602080910402602001604051908101604052809291908181526020018280546109ba90612e9f565b8015610a075780601f106109dc57610100808354040283529160200191610a07565b820191906000526020600020905b8154815290600101906020018083116109ea57829003601f168201915b50505050508152602001600382018054610a2090612e9f565b80601f0160208091040260200160405190810160405280929190818152602001828054610a4c90612e9f565b8015610a995780601f10610a6e57610100808354040283529160200191610a99565b820191906000526020600020905b815481529060010190602001808311610a7c57829003601f168201915b50505050508152602001600482018054610ab290612e9f565b80601f0160208091040260200160405190810160405280929190818152602001828054610ade90612e9f565b8015610b2b5780601f10610b0057610100808354040283529160200191610b2b565b820191906000526020600020905b815481529060010190602001808311610b0e57829003601f168201915b5050509183525050600582810154602080840191909152600684015460408085019190915260078501546001600160a01b03811660608087019190915260ff600160a01b830481161515608080890191909152600160a81b90930416151560a08088019190915260089097015460c0968701528784018f81528884018f90529088018d90529087018b9052948601899052928501879052845160009081529190522082518155905191925082916001820190610be79082612f27565b5060408201516002820190610bfc9082612f27565b5060608201516003820190610c119082612f27565b5060808201516004820190610c269082612f27565b5060a0820151600582015560c0820151600682015560e08201516007820180546101008501516101208601511515600160a81b0260ff60a81b19911515600160a01b026001600160a81b03199093166001600160a01b03909516949094179190911716919091179055610140909101516008909101555050505050505050565b610cae6126e3565b600560008381526020019081526020016000206040518061016001604052908160008201548152602001600182018054610ce790612e9f565b80601f0160208091040260200160405190810160405280929190818152602001828054610d1390612e9f565b8015610d605780601f10610d3557610100808354040283529160200191610d60565b820191906000526020600020905b815481529060010190602001808311610d4357829003601f168201915b50505050508152602001600282018054610d7990612e9f565b80601f0160208091040260200160405190810160405280929190818152602001828054610da590612e9f565b8015610df25780601f10610dc757610100808354040283529160200191610df2565b820191906000526020600020905b815481529060010190602001808311610dd557829003601f168201915b50505050508152602001600382018054610e0b90612e9f565b80601f0160208091040260200160405190810160405280929190818152602001828054610e3790612e9f565b8015610e845780601f10610e5957610100808354040283529160200191610e84565b820191906000526020600020905b815481529060010190602001808311610e6757829003601f168201915b50505050508152602001600482018054610e9d90612e9f565b80601f0160208091040260200160405190810160405280929190818152602001828054610ec990612e9f565b8015610f165780601f10610eeb57610100808354040283529160200191610f16565b820191906000526020600020905b815481529060010190602001808311610ef957829003601f168201915b5050509183525050600582015460208201526006820154604082015260078201546001600160a01b038116606083015260ff600160a01b8204811615156080840152600160a81b90910416151560a082015260089091015460c09091015292915050565b60606000805b600084815260066020526040902054811015610ff2576000848152600660205260409020805482908110610fb657610fb6612df0565b600091825260209091206005600690920201015460ff1615610fe05781610fdc81612fe7565b9250505b80610fea81612fe7565b915050610f80565b508067ffffffffffffffff81111561100c5761100c6127c8565b604051908082528060200260200182016040528015611035578160200160208202803683370190505b5091506000805b60008581526006602052604090205481101561111b57600085815260066020526040902080548290811061107257611072612df0565b600091825260209091206005600690920201015460ff16156111095760008581526006602052604090208054829081106110ae576110ae612df0565b60009182526020909120600260069092020101546001600160a01b031684836110d681612fe7565b9450815181106110e8576110e8612df0565b60200260200101906001600160a01b031690816001600160a01b0316815250505b8061111381612fe7565b91505061103c565b505050919050565b61112b61249b565b600082815260066020526040812080548390811061114b5761114b612df0565b60009182526020918290206040805160e08101825260069093029091018054835260018101549383019390935260028301546001600160a01b031690820152600382015460608201526004820154608082015260059091015460ff80821615801560a085015261010090920416151560c083015290915061120e5760405162461bcd60e51b815260206004820152601f60248201527f41706172746d656e7420616c726561647920636865636b656420696e746f2e006044820152606401610477565b6000838152600a602090815260408083206060850151845290915290205460ff1661126e5760405162461bcd60e51b815260206004820152601060248201526f2230ba32903737ba103137b7b5b2b21760811b6044820152606401610477565b6000546001600160a01b0316331461133f5780604001516001600160a01b0316336001600160a01b0316146112e55760405162461bcd60e51b815260206004820152601b60248201527f4f6e6c792074656e616e742063616e2067657420726566756e642e00000000006044820152606401610477565b6112ed612554565b81606001511161133f5760405162461bcd60e51b815260206004820152601d60248201527f45786365656465642063616e63656c6c6174696f6e20706572696f642e0000006044820152606401610477565b60008381526006602052604090208054600191908490811061136357611363612df0565b6000918252602080832060056006909302019190910180549315156101000261ff001990941693909317909255848152600a82526040808220606085015183528352808220805460ff191690558582526009909252908120546113c890600190612e55565b600085815260096020526040812080549293509091839081106113ed576113ed612df0565b906000526020600020015490508060096000878152602001908152602001600020858154811061141f5761141f612df0565b90600052602060002001819055506009600086815260200190815260200160002080548061144f5761144f613000565b6001900381819060005260206000200160009055905560006064600354856080015161147b9190612e1c565b6114859190612e33565b90506000611494600283612e33565b6000888152600560205260409020600701549091506114bc906001600160a01b0316826124f4565b6114d16105aa6000546001600160a01b031690565b6114e3856040015186608001516124f4565b50505050506105c760018055565b6114f9612573565b61150360006125cd565b565b60008181526008602052604090205460ff166115335760405162461bcd60e51b815260040161047790612e68565b6000818152600560205260409020600701546001600160a01b031633146115955760405162461bcd60e51b815260206004820152601660248201527527b7363c9037bbb732b91031b0b7103232b632ba329760511b6044820152606401610477565b6000908152600860209081526040808320805460ff1916905560059091529020600701805460ff60a81b1916600160a81b179055565b60008651116116145760405162461bcd60e51b81526020600482015260156024820152742730b6b29031b0b73737ba1031329032b6b83a3c9760591b6044820152606401610477565b60008551116116655760405162461bcd60e51b815260206004820152601c60248201527f4465736372697074696f6e2063616e6e6f7420626520656d7074792e000000006044820152606401610477565b60008451116116b25760405162461bcd60e51b81526020600482015260196024820152782637b1b0ba34b7b71031b0b73737ba1031329032b6b83a3c9760391b6044820152606401610477565b60008351116116fd5760405162461bcd60e51b815260206004820152601760248201527624b6b0b3b2b99031b0b73737ba1031329032b6b83a3c9760491b6044820152606401610477565b600082116117455760405162461bcd60e51b81526020600482015260156024820152742937b7b6b99031b0b73737ba103132903d32b9379760591b6044820152606401610477565b6000811161178d5760405162461bcd60e51b8152602060048201526015602482015274283934b1b29031b0b73737ba103132903d32b9379760591b6044820152606401610477565b61179b600280546001019055565b6117a36126e3565b60025481526020810187905260408101869052606081018590526080810184905260a0810183905260c081018290523360e08201526117e0612554565b61014082015280516000908152600860209081526040808320805460ff1916600190811790915584518452600583529220835181559083015183928201906118289082612f27565b506040820151600282019061183d9082612f27565b50606082015160038201906118529082612f27565b50608082015160048201906118679082612f27565b5060a0820151600582015560c0820151600682015560e08201516007820180546101008501516101208601511515600160a81b0260ff60a81b19911515600160a01b026001600160a81b03199093166001600160a01b039095169490941791909117169190911790556101409091015160089091015550505050505050565b60008281526008602052604090205460ff166119145760405162461bcd60e51b815260040161047790612e68565b60646003546119239190612e33565b61192e906001613016565b815160008481526005602052604090206006015461194c9190612e1c565b6119569190612e1c565b34101561199b5760405162461bcd60e51b815260206004820152601360248201527224b739bab33334b1b4b2b73a10333ab732399760691b6044820152606401610477565b6119a5828261261d565b6119e75760405162461bcd60e51b81526020600482015260136024820152722230ba32b9903737ba1030bb30b4b0b136329760691b6044820152606401610477565b60005b8151811015611b92576119fb612699565b600084815260066020908152604091829020548352820185905233908201528251839083908110611a2e57611a2e612df0565b60209081029190910181015160608301908152600086815260058084526040808320600690810154608088019081528a85528187528285208054600181810183559187528887208a51919094029093019283558888015183820155838901516002840180546001600160a01b039092166001600160a01b03199092169190911790559551600383015551600482015560a08701519201805460c088015115156101000261ff00199415159490941661ffff199091161792909217909155878252600a909352918220855191929091869086908110611b0e57611b0e612df0565b6020026020010151815260200190815260200160002060006101000a81548160ff02191690831515021790555060096000858152602001908152602001600020838381518110611b6057611b60612df0565b602090810291909101810151825460018101845560009384529190922001555080611b8a81612fe7565b9150506119ea565b505050565b606060076000838152602001908152602001600020805480602002602001604051908101604052809291908181526020016000905b82821015611cc757838290600052602060002090600502016040518060a00160405290816000820154815260200160018201548152602001600282018054611c1390612e9f565b80601f0160208091040260200160405190810160405280929190818152602001828054611c3f90612e9f565b8015611c8c5780601f10611c6157610100808354040283529160200191611c8c565b820191906000526020600020905b815481529060010190602001808311611c6f57829003601f168201915b505050918352505060038201546020808301919091526004909201546001600160a01b03166040909101529082526001929092019101611bcc565b505050509050919050565b6060600060015b600254811015611d2357600081815260056020526040902060070154600160a81b900460ff16611d115781611d0d81612fe7565b9250505b80611d1b81612fe7565b915050611cd9565b508067ffffffffffffffff811115611d3d57611d3d6127c8565b604051908082528060200260200182016040528015611d7657816020015b611d636126e3565b815260200190600190039081611d5b5790505b509150600060015b6002548110156120a957600081815260056020526040902060070154600160a81b900460ff1661209757600560008281526020019081526020016000206040518061016001604052908160008201548152602001600182018054611de190612e9f565b80601f0160208091040260200160405190810160405280929190818152602001828054611e0d90612e9f565b8015611e5a5780601f10611e2f57610100808354040283529160200191611e5a565b820191906000526020600020905b815481529060010190602001808311611e3d57829003601f168201915b50505050508152602001600282018054611e7390612e9f565b80601f0160208091040260200160405190810160405280929190818152602001828054611e9f90612e9f565b8015611eec5780601f10611ec157610100808354040283529160200191611eec565b820191906000526020600020905b815481529060010190602001808311611ecf57829003601f168201915b50505050508152602001600382018054611f0590612e9f565b80601f0160208091040260200160405190810160405280929190818152602001828054611f3190612e9f565b8015611f7e5780601f10611f5357610100808354040283529160200191611f7e565b820191906000526020600020905b815481529060010190602001808311611f6157829003601f168201915b50505050508152602001600482018054611f9790612e9f565b80601f0160208091040260200160405190810160405280929190818152602001828054611fc390612e9f565b80156120105780601f10611fe557610100808354040283529160200191612010565b820191906000526020600020905b815481529060010190602001808311611ff357829003601f168201915b5050509183525050600582015460208201526006820154604082015260078201546001600160a01b038116606083015260ff600160a01b8204811615156080840152600160a81b90910416151560a082015260089091015460c090910152848361207981612fe7565b94508151811061208b5761208b612df0565b60200260200101819052505b806120a181612fe7565b915050611d7e565b50505090565b6120b761249b565b60008281526006602052604081208054839081106120d7576120d7612df0565b60009182526020918290206040805160e08101825260069093029091018054835260018101549383019390935260028301546001600160a01b0316908201819052600383015460608301526004830154608083015260059092015460ff808216151560a084015261010090910416151560c08201529150331461219c5760405162461bcd60e51b815260206004820181905260248201527f4f6e6c7920626f6f6b696e672074656e616e742063616e20636865636b20696e6044820152606401610477565b8060a00151156121ee5760405162461bcd60e51b815260206004820152601f60248201527f41706172746d656e7420616c726561647920636865636b656420696e746f2e006044820152606401610477565b60008381526006602052604090208054600191908490811061221257612212612df0565b60009182526020808320600560069093020191909101805493151560ff19948516179055338252600b815260408083206060860151845290915281208054909216600117909155600454608083015160649161226d91612e1c565b6122779190612e33565b905060006064600354846080015161228f9190612e1c565b6122999190612e33565b60008681526005602052604090206007015460808501519192506122ce916001600160a01b0390911690610590908590612e55565b6122eb6122e36000546001600160a01b031690565b6004546124f4565b6122f98360400151826124f4565b5050506105c760018055565b60008181526009602090815260409182902080548351818402810184019094528084526060939283018282801561235b57602002820191906000526020600020905b815481526020019060010190808311612347575b50505050509050919050565b61236f612573565b6001600160a01b0381166123d45760405162461bcd60e51b815260206004820152602660248201527f4f776e61626c653a206e6577206f776e657220697320746865207a65726f206160448201526564647265737360d01b6064820152608401610477565b6123dd816125cd565b50565b606060066000838152602001908152602001600020805480602002602001604051908101604052809291908181526020016000905b82821015611cc75760008481526020908190206040805160e08101825260068602909201805483526001808201548486015260028201546001600160a01b03169284019290925260038101546060840152600481015460808401526005015460ff808216151560a085015261010090910416151560c08301529083529092019101612415565b6002600154036124ed5760405162461bcd60e51b815260206004820152601f60248201527f5265656e7472616e637947756172643a207265656e7472616e742063616c6c006044820152606401610477565b6002600155565b6000826001600160a01b03168260405160006040518083038185875af1925050503d8060008114612541576040519150601f19603f3d011682016040523d82523d6000602084013e612546565b606091505b5050905080611b9257600080fd5b6000612562426103e8612e1c565b61256e906103e8613016565b905090565b6000546001600160a01b031633146115035760405162461bcd60e51b815260206004820181905260248201527f4f776e61626c653a2063616c6c6572206973206e6f7420746865206f776e65726044820152606401610477565b600080546001600160a01b038381166001600160a01b0319831681178455604051919092169283917f8be0079c531659141344cd1fd0a4f28419497f9722a3daafe3b4186f6b6457e09190a35050565b60006001815b835181101561269157600a6000868152602001908152602001600020600085838151811061265357612653612df0565b60209081029190910181015182528101919091526040016000205460ff161561267f5760009150612691565b8061268981612fe7565b915050612623565b509392505050565b6040518060e00160405280600081526020016000815260200160006001600160a01b0316815260200160008152602001600081526020016000151581526020016000151581525090565b6040518061016001604052806000815260200160608152602001606081526020016060815260200160608152602001600081526020016000815260200160006001600160a01b03168152602001600015158152602001600015158152602001600081525090565b6000806040838503121561275d57600080fd5b50508035926020909101359150565b80518252602080820151908301526040808201516001600160a01b031690830152606080820151908301526080808201519083015260a08082015115159083015260c0908101511515910152565b60e08101610669828461276c565b634e487b7160e01b600052604160045260246000fd5b604051601f8201601f1916810167ffffffffffffffff81118282101715612807576128076127c8565b604052919050565b600082601f83011261282057600080fd5b813567ffffffffffffffff81111561283a5761283a6127c8565b61284d601f8201601f19166020016127de565b81815284602083860101111561286257600080fd5b816020850160208301376000918101602001919091529392505050565b600080600080600080600060e0888a03121561289a57600080fd5b87359650602088013567ffffffffffffffff808211156128b957600080fd5b6128c58b838c0161280f565b975060408a01359150808211156128db57600080fd5b6128e78b838c0161280f565b965060608a01359150808211156128fd57600080fd5b6129098b838c0161280f565b955060808a013591508082111561291f57600080fd5b5061292c8a828b0161280f565b93505060a0880135915060c0880135905092959891949750929550565b60006020828403121561295b57600080fd5b5035919050565b6000815180845260005b818110156129885760208185018101518683018201520161296c565b506000602082860101526020601f19601f83011685010191505092915050565b60006101608251845260208301518160208601526129c882860182612962565b915050604083015184820360408601526129e28282612962565b915050606083015184820360608601526129fc8282612962565b91505060808301518482036080860152612a168282612962565b91505060a083015160a085015260c083015160c085015260e0830151612a4760e08601826001600160a01b03169052565b5061010083810151151590850152610120808401511515908501526101409283015192909301919091525090565b602081526000612a8860208301846129a8565b9392505050565b6020808252825182820181905260009190848201906040850190845b81811015612ad05783516001600160a01b031683529284019291840191600101612aab565b50909695505050505050565b60008060008060008060c08789031215612af557600080fd5b863567ffffffffffffffff80821115612b0d57600080fd5b612b198a838b0161280f565b97506020890135915080821115612b2f57600080fd5b612b3b8a838b0161280f565b96506040890135915080821115612b5157600080fd5b612b5d8a838b0161280f565b95506060890135915080821115612b7357600080fd5b50612b8089828a0161280f565b9350506080870135915060a087013590509295509295509295565b60008060408385031215612bae57600080fd5b8235915060208084013567ffffffffffffffff80821115612bce57600080fd5b818601915086601f830112612be257600080fd5b813581811115612bf457612bf46127c8565b8060051b9150612c058483016127de565b8181529183018401918481019089841115612c1f57600080fd5b938501935b83851015612c3d57843582529385019390850190612c24565b8096505050505050509250929050565b60006020808301818452808551808352604092508286019150828160051b87010184880160005b83811015612cdd57603f19898403018552815160a0815185528882015189860152878201518189870152612caa82870182612962565b606084810151908801526080938401516001600160a01b0316939096019290925250509386019390860190600101612c74565b509098975050505050505050565b6000602080830181845280855180835260408601915060408160051b870101925083870160005b82811015612d4057603f19888603018452612d2e8583516129a8565b94509285019290850190600101612d12565b5092979650505050505050565b6020808252825182820181905260009190848201906040850190845b81811015612ad057835183529284019291840191600101612d69565b600060208284031215612d9757600080fd5b81356001600160a01b0381168114612a8857600080fd5b6020808252825182820181905260009190848201906040850190845b81811015612ad057612ddd83855161276c565b9284019260e09290920191600101612dca565b634e487b7160e01b600052603260045260246000fd5b634e487b7160e01b600052601160045260246000fd5b808202811582820484141761066957610669612e06565b600082612e5057634e487b7160e01b600052601260045260246000fd5b500490565b8181038181111561066957610669612e06565b60208082526019908201527f41706172746d656e7420646f6573206e6f742065786973742e00000000000000604082015260600190565b600181811c90821680612eb357607f821691505b602082108103612ed357634e487b7160e01b600052602260045260246000fd5b50919050565b601f821115611b9257600081815260208120601f850160051c81016020861015612f005750805b601f850160051c820191505b81811015612f1f57828155600101612f0c565b505050505050565b815167ffffffffffffffff811115612f4157612f416127c8565b612f5581612f4f8454612e9f565b84612ed9565b602080601f831160018114612f8a5760008415612f725750858301515b600019600386901b1c1916600185901b178555612f1f565b600085815260208120601f198616915b82811015612fb957888601518255948401946001909101908401612f9a565b5085821015612fd75787850151600019600388901b60f8161c191681555b5050505050600190811b01905550565b600060018201612ff957612ff9612e06565b5060010190565b634e487b7160e01b600052603160045260246000fd5b8082018082111561066957610669612e0656fea2646970667358221220fb1af11203dc2c93fa4dbb3a83dffbda4e1ea173bf6472cc6a3d7718d4d6c7fa64736f6c63430008130033",
  "linkReferences": {},
  "deployedLinkReferences": {}
}